{
  "contractName": "ClientRating",
  "abi": [
    {
      "constant": true,
      "inputs": [],
      "name": "rateCounter",
      "outputs": [
        {
          "name": "",
          "type": "uint256"
        }
      ],
      "payable": false,
      "stateMutability": "view",
      "type": "function",
      "signature": "0x1160ab9f"
    },
    {
      "constant": true,
      "inputs": [
        {
          "name": "",
          "type": "uint256"
        }
      ],
      "name": "ratings",
      "outputs": [
        {
          "name": "user",
          "type": "address"
        },
        {
          "name": "location",
          "type": "int256"
        },
        {
          "name": "price",
          "type": "int256"
        },
        {
          "name": "activities",
          "type": "int256"
        },
        {
          "name": "services",
          "type": "int256"
        }
      ],
      "payable": false,
      "stateMutability": "view",
      "type": "function",
      "signature": "0x5d30e84d"
    },
    {
      "inputs": [],
      "payable": false,
      "stateMutability": "nonpayable",
      "type": "constructor",
      "signature": "constructor"
    },
    {
      "anonymous": false,
      "inputs": [
        {
          "components": [
            {
              "name": "user",
              "type": "address"
            },
            {
              "name": "location",
              "type": "int256"
            },
            {
              "name": "price",
              "type": "int256"
            },
            {
              "name": "activities",
              "type": "int256"
            },
            {
              "name": "services",
              "type": "int256"
            },
            {
              "name": "food",
              "type": "int8[4]"
            },
            {
              "name": "stay",
              "type": "int8[4]"
            },
            {
              "name": "staff",
              "type": "int8[4]"
            }
          ],
          "indexed": false,
          "name": "clientRate",
          "type": "tuple"
        },
        {
          "indexed": false,
          "name": "reward",
          "type": "uint256"
        }
      ],
      "name": "ClientRateCreated",
      "type": "event",
      "signature": "0xc5f294391e6f9b2dfc35589e3ec97a4d9494b2859b5e9d77cdce0f6667b813f8"
    },
    {
      "constant": false,
      "inputs": [
        {
          "name": "user",
          "type": "address"
        },
        {
          "name": "_location",
          "type": "int256"
        },
        {
          "name": "_price",
          "type": "int256"
        },
        {
          "name": "_activities",
          "type": "int256"
        },
        {
          "name": "_services",
          "type": "int256"
        },
        {
          "name": "food",
          "type": "int8[4]"
        },
        {
          "name": "stay",
          "type": "int8[4]"
        },
        {
          "name": "staff",
          "type": "int8[4]"
        }
      ],
      "name": "createClientRate",
      "outputs": [],
      "payable": false,
      "stateMutability": "nonpayable",
      "type": "function",
      "signature": "0xe9be0d9f"
    },
    {
      "constant": true,
      "inputs": [
        {
          "name": "tab",
          "type": "int8[4]"
        }
      ],
      "name": "test_tab",
      "outputs": [
        {
          "name": "",
          "type": "uint256"
        }
      ],
      "payable": false,
      "stateMutability": "pure",
      "type": "function",
      "signature": "0x877f3b6e"
    }
  ],
  "bytecode": "0x60806040523480156200001157600080fd5b5060408051608081810183526000198083526002602080850182905260038587018190526004606080880182905288518088018a52868152808501869052808a0184905280820183905289519788018a52958752928601939093529584018690528301819052620000ac94735b38da6a701c568545dcfcb03fcb875f56beddc4949193600593919284929091640100000000620000b2810204565b62000d09565b6000805460019081018083556040805161010081018252600160a060020a038d8116825260208083018e81528385018e8152606085018e8152608086018e815260a087018e815260c088018e905260e088018d9052988b52938990529590982084518154600160a060020a031916941693909317835551958201959095559451600286015590516003850155915160048085019190915590519192916200015f9160058401919062000499565b5060c082015162000177906006830190600462000499565b5060e08201516200018f906007830190600462000499565b509050506000620001ae62000209640100000000026401000000009004565b90507fc5f294391e6f9b2dfc35589e3ec97a4d9494b2859b5e9d77cdce0f6667b813f8600160008054815260200190815260200160002082604051620001f6929190620009ed565b60405180910390a1505050505050505050565b60006200021562000536565b6000805481526001602081815260408084208151610100810183528154600160a060020a031681529381015492840192909252600282015483820152600382015460608401526004808301546080808601919091528251908101928390529394929360a086019390926005860192918390855b82829054906101000a900460000b60000b815260200190600101906020826000010492830192600103820291508084116200028857505050928452505060408051608081019182905260209093019291506006840190600490826000855b82829054906101000a900460000b60000b81526020019060010190602082600001049283019260010382029150808411620002e657505050928452505060408051608081019182905260209093019291506007840190600490826000855b82829054906101000a900460000b60000b8152602001906001019060208260000104928301926001038202915080841162000344575050509290935250505050602081015190915060009081136200039a576001015b6040820151600013620003ab576001015b6060820151600013620003bc576001015b6080820151600013620003cd576001015b620003eb8260a0015162000455640100000000026401000000009004565b60041415620003f8576001015b620004168260c0015162000455640100000000026401000000009004565b6004141562000423576001015b620004418260e0015162000455640100000000026401000000009004565b600414156200044e576001015b9150505b90565b600080805b6004811015620004925760008482600481106200047357fe5b602002015160000b131562000489576001909101905b6001016200045a565b5092915050565b600183019183908215620005245791602002820160005b83821115620004f357835183826101000a81548160ff021916908360000b60ff1602179055509260200192600101602081600001049283019260010302620004b0565b8015620005225782816101000a81549060ff0219169055600101602081600001049283019260010302620004f3565b505b50620005329291506200059c565b5090565b610220604051908101604052806000600160a060020a031681526020016000815260200160008152602001600081526020016000815260200162000579620005bd565b815260200162000588620005bd565b815260200162000597620005bd565b905290565b6200045291905b808211156200053257805460ff19168155600101620005a3565b6080604051908101604052806004906020820280388339509192915050565b620005e78162000a1b565b82525050565b620005f88162000a15565b82620006048362000452565b60005b83811015620008e75781546200062887620006228362000452565b620008fa565b6020870196506200063e87620006228362000cee565b6020870196506200065487620006228362000b18565b6020870196506200066a87620006228362000c70565b6020870196506200068087620006228362000c7a565b6020870196506200069687620006228362000c85565b602087019650620006ac87620006228362000c91565b602087019650620006c287620006228362000c9e565b602087019650620006d887620006228362000cac565b602087019650620006ee87620006228362000cbb565b6020870196506200070487620006228362000ccb565b6020870196506200071a87620006228362000cdc565b6020870196506200073087620006228362000cf6565b6020870196506200074687620006228362000a40565b6020870196506200075c87620006228362000a54565b6020870196506200077287620006228362000a69565b6020870196506200078887620006228362000a7f565b6020870196506200079e87620006228362000a96565b602087019650620007b487620006228362000aae565b602087019650620007ca87620006228362000ac7565b602087019650620007e087620006228362000ae1565b602087019650620007f687620006228362000afc565b6020870196506200080c87620006228362000b21565b6020870196506200082287620006228362000b3e565b6020870196506200083887620006228362000b5c565b6020870196506200084e87620006228362000b7b565b6020870196506200086487620006228362000b9b565b6020870196506200087a87620006228362000bbc565b6020870196506200089087620006228362000bde565b602087019650620008a687620006228362000c01565b602087019650620008bc87620006228362000c25565b602087019650620008d287620006228362000c4a565b50602095860195600192909201910162000607565b505050505050565b620005e78162000452565b620005e78162000a2e565b8054610220830190620009188162000452565b620009248582620005dc565b50506001820154620009368162000452565b620009456020860182620008ef565b50506002820154620009578162000452565b620009666040860182620008ef565b50506003820154620009788162000452565b620009876060860182620008ef565b50506004820154620009998162000452565b620009a86080860182620008ef565b5060058301620009bc60a0860182620005ed565b5060068301620009d1610120860182620005ed565b5060078301620009e66101a0860182620005ed565b5050505050565b6102408101620009fe828562000905565b62000a0e610220830184620008ef565b9392505050565b50600490565b600062000a288262000a34565b92915050565b60000b90565b600160a060020a031690565b6d0100000000000000000000000000900490565b6e010000000000000000000000000000900490565b6f01000000000000000000000000000000900490565b700100000000000000000000000000000000900490565b71010000000000000000000000000000000000900490565b7201000000000000000000000000000000000000900490565b730100000000000000000000000000000000000000900490565b74010000000000000000000000000000000000000000900490565b7501000000000000000000000000000000000000000000900490565b62010000900490565b760100000000000000000000000000000000000000000000900490565b77010000000000000000000000000000000000000000000000900490565b7801000000000000000000000000000000000000000000000000900490565b790100000000000000000000000000000000000000000000000000900490565b7a010000000000000000000000000000000000000000000000000000900490565b7b01000000000000000000000000000000000000000000000000000000900490565b7c0100000000000000000000000000000000000000000000000000000000900490565b7d010000000000000000000000000000000000000000000000000000000000900490565b7e01000000000000000000000000000000000000000000000000000000000000900490565b7f0100000000000000000000000000000000000000000000000000000000000000900490565b6301000000900490565b640100000000900490565b65010000000000900490565b6601000000000000900490565b670100000000000000900490565b68010000000000000000900490565b6901000000000000000000900490565b6a0100000000000000000000900490565b6b010000000000000000000000900490565b610100900490565b6c01000000000000000000000000900490565b610f538062000d196000396000f3fe6080604052600436106100615763ffffffff7c01000000000000000000000000000000000000000000000000000000006000350416631160ab9f81146100665780635d30e84d14610091578063877f3b6e146100c2578063e9be0d9f146100e2575b600080fd5b34801561007257600080fd5b5061007b610104565b6040516100889190610bc7565b60405180910390f35b34801561009d57600080fd5b506100b16100ac3660046107b6565b61010a565b604051610088959493929190610b5e565b3480156100ce57600080fd5b5061007b6100dd366004610790565b610151565b3480156100ee57600080fd5b506101026100fd3660046106de565b610191565b005b60005481565b60016020819052600091825260409091208054918101546002820154600383015460049093015473ffffffffffffffffffffffffffffffffffffffff909416939192909185565b600080805b600481101561018a57600084826004811061016d57fe5b602002015160000b1315610182576001909101905b600101610156565b5092915050565b600080546001908101808355604080516101008101825273ffffffffffffffffffffffffffffffffffffffff8d8116825260208083018e81528385018e8152606085018e8152608086018e815260a087018e815260c088018e905260e088018d9052988b5293899052959098208451815473ffffffffffffffffffffffffffffffffffffffff19169416939093178355519582019590955594516002860155905160038501559151600480850191909155905191929161025691600584019190610503565b5060c082015161026c9060068301906004610503565b5060e08201516102829060078301906004610503565b5090505060006102906102e9565b90507fc5f294391e6f9b2dfc35589e3ec97a4d9494b2859b5e9d77cdce0f6667b813f86001600080548152602001908152602001600020826040516102d6929190610baa565b60405180910390a1505050505050505050565b60006102f3610599565b600080548152600160208181526040808420815161010081018352815473ffffffffffffffffffffffffffffffffffffffff1681529381015492840192909252600282015483820152600382015460608401526004808301546080808601919091528251908101928390529394929360a086019390926005860192918390855b82829054906101000a900460000b60000b8152602001906001019060208260000104928301926001038202915080841161037357505050928452505060408051608081019182905260209093019291506006840190600490826000855b82829054906101000a900460000b60000b815260200190600101906020826000010492830192600103820291508084116103d057505050928452505060408051608081019182905260209093019291506007840190600490826000855b82829054906101000a900460000b60000b8152602001906001019060208260000104928301926001038202915080841161042d57505050929093525050505060208101519091506000908113610481576001015b6040820151600013610491576001015b60608201516000136104a1576001015b60808201516000136104b1576001015b6104be8260a00151610151565b600414156104ca576001015b6104d78260c00151610151565b600414156104e3576001015b6104f08260e00151610151565b600414156104fc576001015b9150505b90565b6001830191839082156105895791602002820160005b8382111561055a57835183826101000a81548160ff021916908360000b60ff1602179055509260200192600101602081600001049283019260010302610519565b80156105875782816101000a81549060ff021916905560010160208160000104928301926001030261055a565b505b50610595929150610606565b5090565b61022060405190810160405280600073ffffffffffffffffffffffffffffffffffffffff168152602001600081526020016000815260200160008152602001600081526020016105e7610624565b81526020016105f4610624565b8152602001610601610624565b905290565b61050091905b8082111561059557805460ff1916815560010161060c565b6080604051908101604052806004906020820280388339509192915050565b600061064f8235610c26565b9392505050565b6000601f8201831361066757600080fd5b600461067a61067582610c02565b610bdb565b9150818385602084028201111561069057600080fd5b60005b838110156106bc57816106a688826106d2565b8452506020928301929190910190600101610693565b5050505092915050565b600061064f8235610500565b600061064f8235610c31565b600080600080600080600080610220898b0312156106fb57600080fd5b60006107078b8b610643565b98505060206107188b828c016106c6565b97505060406107298b828c016106c6565b965050606061073a8b828c016106c6565b955050608061074b8b828c016106c6565b94505060a061075c8b828c01610656565b93505061012061076e8b828c01610656565b9250506101a06107808b828c01610656565b9150509295985092959890939650565b6000608082840312156107a257600080fd5b60006107ae8484610656565b949350505050565b6000602082840312156107c857600080fd5b60006107ae84846106c6565b6107dd81610c26565b82525050565b6107ec81610c20565b826107f683610500565b60005b83811015610a765781546108158761081083610500565b610a87565b6020870196506108288761081083610efe565b60208701965061083b8761081083610d28565b60208701965061084e8761081083610e80565b6020870196506108618761081083610e8a565b6020870196506108748761081083610e95565b6020870196506108878761081083610ea1565b60208701965061089a8761081083610eae565b6020870196506108ad8761081083610ebc565b6020870196506108c08761081083610ecb565b6020870196506108d38761081083610edb565b6020870196506108e68761081083610eec565b6020870196506108f98761081083610f06565b60208701965061090c8761081083610c50565b60208701965061091f8761081083610c64565b6020870196506109328761081083610c79565b6020870196506109458761081083610c8f565b6020870196506109588761081083610ca6565b60208701965061096b8761081083610cbe565b60208701965061097e8761081083610cd7565b6020870196506109918761081083610cf1565b6020870196506109a48761081083610d0c565b6020870196506109b78761081083610d31565b6020870196506109ca8761081083610d4e565b6020870196506109dd8761081083610d6c565b6020870196506109f08761081083610d8b565b602087019650610a038761081083610dab565b602087019650610a168761081083610dcc565b602087019650610a298761081083610dee565b602087019650610a3c8761081083610e11565b602087019650610a4f8761081083610e35565b602087019650610a628761081083610e5a565b5060209586019560019290920191016107f9565b505050505050565b6107dd81610500565b6107dd81610c31565b8054610220830190610aa181610500565b610aab85826107d4565b50506001820154610abb81610500565b610ac86020860182610a7e565b50506002820154610ad881610500565b610ae56040860182610a7e565b50506003820154610af581610500565b610b026060860182610a7e565b50506004820154610b1281610500565b610b1f6080860182610a7e565b5060058301610b3160a08601826107e3565b5060068301610b446101208601826107e3565b5060078301610b576101a08601826107e3565b5050505050565b60a08101610b6c82886107d4565b610b796020830187610a7e565b610b866040830186610a7e565b610b936060830185610a7e565b610ba06080830184610a7e565b9695505050505050565b6102408101610bb98285610a90565b61064f610220830184610a7e565b60208101610bd58284610a7e565b92915050565b60405181810167ffffffffffffffff81118282101715610bfa57600080fd5b604052919050565b600067ffffffffffffffff821115610c1957600080fd5b5060200290565b50600490565b6000610bd582610c37565b60000b90565b73ffffffffffffffffffffffffffffffffffffffff1690565b6d0100000000000000000000000000900490565b6e010000000000000000000000000000900490565b6f01000000000000000000000000000000900490565b700100000000000000000000000000000000900490565b71010000000000000000000000000000000000900490565b7201000000000000000000000000000000000000900490565b730100000000000000000000000000000000000000900490565b74010000000000000000000000000000000000000000900490565b7501000000000000000000000000000000000000000000900490565b62010000900490565b760100000000000000000000000000000000000000000000900490565b77010000000000000000000000000000000000000000000000900490565b7801000000000000000000000000000000000000000000000000900490565b790100000000000000000000000000000000000000000000000000900490565b7a010000000000000000000000000000000000000000000000000000900490565b7b01000000000000000000000000000000000000000000000000000000900490565b7c0100000000000000000000000000000000000000000000000000000000900490565b7d010000000000000000000000000000000000000000000000000000000000900490565b7e01000000000000000000000000000000000000000000000000000000000000900490565b7f0100000000000000000000000000000000000000000000000000000000000000900490565b6301000000900490565b640100000000900490565b65010000000000900490565b6601000000000000900490565b670100000000000000900490565b68010000000000000000900490565b6901000000000000000000900490565b6a0100000000000000000000900490565b6b010000000000000000000000900490565b610100900490565b6c0100000000000000000000000090049056fea265627a7a72305820cef0958605b3dddf5e3df78894fc09f82902c6a0a9373e971f1c196999a0cfe36c6578706572696d656e74616cf50037",
  "source": "// SPDX-License-Identifier: GPL-3.0\r\n\r\npragma solidity ^0.5.0;\r\npragma experimental ABIEncoderV2;\r\n\r\ncontract ClientRating {\r\n\r\n    uint256 public rateCounter ;\r\n\r\n    struct ClientRate {\r\n        address user;\r\n        int256 location ;\r\n        int256 price ;\r\n        int256 activities ;\r\n        int256 services ;\r\n        int8[4] food;\r\n        int8[4] stay ;\r\n        int8[4] staff ;\r\n    }\r\n   \r\n    mapping(uint256 => ClientRate ) public ratings ;\r\n\r\n    constructor() public {\r\n        createClientRate(0x5B38Da6a701c568545dCfcB03FcB875f56beddC4,4,5,3,5,[-1,2,3,4],[-1,2,3,4],[-1,2,3,4]);\r\n    }\r\n\r\n    event ClientRateCreated(\r\n        ClientRate clientRate ,\r\n        uint256 reward  \r\n    );\r\n    \r\n\r\n    function createClientRate(address user, int256 _location ,\r\n    int256 _price , int256 _activities , int256  _services , \r\n    int8[4] memory food  , int8[4] memory stay  , int8[4] memory staff ) public {\r\n       rateCounter ++;\r\n       ratings[rateCounter] =  ClientRate(user,_location,_price,_activities,_services,food,stay,staff);\r\n       uint256 reward = calcule_reward();\r\n       emit ClientRateCreated(ratings[rateCounter],reward);\r\n    }\r\n\r\n\r\n    function test_tab(int8[4] memory tab) public pure returns (uint256) {\r\n        uint256 valid = 0 ;\r\n        uint i=0;\r\n        for(i=0;i<4;i++){\r\n            if(tab[i]>0){\r\n                valid++;\r\n            }\r\n        }\r\n        return valid ;\r\n    }\r\n\r\n    function calcule_reward() internal view returns (uint256){\r\n        ClientRate memory rate = ratings[rateCounter];\r\n        uint256 _reward = 0;\r\n        if(rate.location >= 0) {\r\n            _reward =  _reward + 1; \r\n        }\r\n        if(rate.price >= 0) {\r\n            _reward =  _reward +1; \r\n        }\r\n        if(rate.activities >= 0) {\r\n           _reward =  _reward +1; \r\n        }\r\n        if(rate.services >= 0) {\r\n            _reward =  _reward +1; \r\n        }\r\n        if(test_tab(rate.food) == 4) {\r\n           _reward =  _reward +1; \r\n        }\r\n        if(test_tab(rate.stay) == 4) {\r\n           _reward =  _reward +1; \r\n        }\r\n        if(test_tab(rate.staff) == 4) {\r\n           _reward =  _reward +1;  \r\n        }\r\n        return _reward ;\r\n    }\r\n\r\n}",
  "sourcePath": "C:/Users/ASUS/OneDrive/Bureau/incentive_dapp/truffle/contracts/ClientRating.sol",
  "compiler": {
    "name": "solc",
    "version": "0.5.0+commit.1d4f565a.Emscripten.clang"
  },
  "schemaVersion": "3.0.1",
  "updatedAt": "2022-02-24T08:47:21.927Z",
  "devdoc": {
    "methods": {}
  },
  "userdoc": {
    "methods": {}
  }
}